{
  "contractName": "wallet",
  "abi": [
    {
      "stateMutability": "payable",
      "type": "receive"
    },
    {
      "inputs": [],
      "name": "getBalance",
      "outputs": [
        {
          "internalType": "uint256",
          "name": "",
          "type": "uint256"
        }
      ],
      "stateMutability": "view",
      "type": "function"
    },
    {
      "inputs": [
        {
          "internalType": "address payable",
          "name": "recipient",
          "type": "address"
        }
      ],
      "name": "sendEth",
      "outputs": [],
      "stateMutability": "payable",
      "type": "function"
    }
  ],
  "bytecode": "0x608060405234801561001057600080fd5b506101d4806100206000396000f3fe60806040526004361061002d5760003560e01c806312065fe01461003957806376a54c601461006457610034565b3661003457005b600080fd5b34801561004557600080fd5b5061004e610080565b60405161005b91906100f3565b60405180910390f35b61007e60048036038101906100799190610171565b610088565b005b600047905090565b8073ffffffffffffffffffffffffffffffffffffffff166108fc670de0b6b3a76400009081150290604051600060405180830381858888f193505050501580156100d6573d6000803e3d6000fd5b5050565b6000819050919050565b6100ed816100da565b82525050565b600060208201905061010860008301846100e4565b92915050565b600080fd5b600073ffffffffffffffffffffffffffffffffffffffff82169050919050565b600061013e82610113565b9050919050565b61014e81610133565b811461015957600080fd5b50565b60008135905061016b81610145565b92915050565b6000602082840312156101875761018661010e565b5b60006101958482850161015c565b9150509291505056fea264697066735822122033be0d8652bb6478c0a4c19eed470bef1963cff9b2c3930efb11b63d515dde6e64736f6c634300080b0033",
  "immutableReferences": {},
  "source": "pragma solidity >=0.4.22 <0.9.0;\n \ncontract wallet{\n   receive() external payable {}\n\n   function getBalance() public view returns (uint){\n       return address(this).balance;\n   }\n\n   function sendEth( address payable recipient) public payable{\n       recipient.transfer((1 ether));\n   }\n}\n\n",
  "sourcePath": "/home/rhythmshandlya/Documents/nftnft/contracts/Wallet.sol",
  "compiler": {
    "name": "solc",
    "version": "0.8.11+commit.d7f03943.Emscripten.clang"
  },
  "schemaVersion": "3.4.6",
  "updatedAt": "2022-03-26T06:35:38.398Z",
  "devdoc": {
    "kind": "dev",
    "methods": {},
    "version": 1
  },
  "userdoc": {
    "kind": "user",
    "methods": {},
    "version": 1
  }
}