{
  "contractName": "Wallet",
  "abi": [
    {
      "inputs": [],
      "stateMutability": "nonpayable",
      "type": "constructor"
    },
    {
      "inputs": [
        {
          "internalType": "address",
          "name": "",
          "type": "address"
        }
      ],
      "name": "balance",
      "outputs": [
        {
          "internalType": "uint256",
          "name": "",
          "type": "uint256"
        }
      ],
      "stateMutability": "view",
      "type": "function",
      "constant": true
    },
    {
      "inputs": [],
      "name": "add",
      "outputs": [],
      "stateMutability": "payable",
      "type": "function",
      "payable": true
    },
    {
      "inputs": [
        {
          "internalType": "uint256",
          "name": "_value",
          "type": "uint256"
        }
      ],
      "name": "withdraw",
      "outputs": [
        {
          "internalType": "uint256",
          "name": "",
          "type": "uint256"
        }
      ],
      "stateMutability": "nonpayable",
      "type": "function"
    },
    {
      "inputs": [],
      "name": "getBalance",
      "outputs": [
        {
          "internalType": "uint256",
          "name": "",
          "type": "uint256"
        }
      ],
      "stateMutability": "view",
      "type": "function",
      "constant": true
    }
  ],
  "bytecode": "0x608060405234801561001057600080fd5b50336000806101000a81548173ffffffffffffffffffffffffffffffffffffffff021916908373ffffffffffffffffffffffffffffffffffffffff16021790555060006001819055506106a7806100686000396000f3fe60806040526004361061003f5760003560e01c806312065fe0146100445780632e1a7d4d1461006f5780634f2be91f146100ac578063e3d670d7146100b6575b600080fd5b34801561005057600080fd5b506100596100f3565b604051610066919061037d565b60405180910390f35b34801561007b57600080fd5b50610096600480360381019061009191906103c9565b61013a565b6040516100a3919061037d565b60405180910390f35b6100b46102b5565b005b3480156100c257600080fd5b506100dd60048036038101906100d89190610454565b61034c565b6040516100ea919061037d565b60405180910390f35b6000600260003373ffffffffffffffffffffffffffffffffffffffff1673ffffffffffffffffffffffffffffffffffffffff16815260200190815260200160002054905090565b600081600260003373ffffffffffffffffffffffffffffffffffffffff1673ffffffffffffffffffffffffffffffffffffffff1681526020019081526020016000205410156101be576040517f08c379a00000000000000000000000000000000000000000000000000000000081526004016101b5906104de565b60405180910390fd5b3373ffffffffffffffffffffffffffffffffffffffff166108fc670de0b6b3a7640000846101ec919061052d565b9081150290604051600060405180830381858888f19350505050158015610217573d6000803e3d6000fd5b5081600260003373ffffffffffffffffffffffffffffffffffffffff1673ffffffffffffffffffffffffffffffffffffffff16815260200190815260200160002060008282546102679190610587565b92505081905550600260003373ffffffffffffffffffffffffffffffffffffffff1673ffffffffffffffffffffffffffffffffffffffff168152602001908152602001600020549050919050565b670de0b6b3a7640000346102c991906105ea565b600160008282546102da919061061b565b92505081905550670de0b6b3a7640000346102f591906105ea565b600260003373ffffffffffffffffffffffffffffffffffffffff1673ffffffffffffffffffffffffffffffffffffffff1681526020019081526020016000206000828254610343919061061b565b92505081905550565b60026020528060005260406000206000915090505481565b6000819050919050565b61037781610364565b82525050565b6000602082019050610392600083018461036e565b92915050565b600080fd5b6103a681610364565b81146103b157600080fd5b50565b6000813590506103c38161039d565b92915050565b6000602082840312156103df576103de610398565b5b60006103ed848285016103b4565b91505092915050565b600073ffffffffffffffffffffffffffffffffffffffff82169050919050565b6000610421826103f6565b9050919050565b61043181610416565b811461043c57600080fd5b50565b60008135905061044e81610428565b92915050565b60006020828403121561046a57610469610398565b5b60006104788482850161043f565b91505092915050565b600082825260208201905092915050565b7f496e736666696369656e742046756e6473000000000000000000000000000000600082015250565b60006104c8601183610481565b91506104d382610492565b602082019050919050565b600060208201905081810360008301526104f7816104bb565b9050919050565b7f4e487b7100000000000000000000000000000000000000000000000000000000600052601160045260246000fd5b600061053882610364565b915061054383610364565b9250817fffffffffffffffffffffffffffffffffffffffffffffffffffffffffffffffff048311821515161561057c5761057b6104fe565b5b828202905092915050565b600061059282610364565b915061059d83610364565b9250828210156105b0576105af6104fe565b5b828203905092915050565b7f4e487b7100000000000000000000000000000000000000000000000000000000600052601260045260246000fd5b60006105f582610364565b915061060083610364565b9250826106105761060f6105bb565b5b828204905092915050565b600061062682610364565b915061063183610364565b9250827fffffffffffffffffffffffffffffffffffffffffffffffffffffffffffffffff03821115610666576106656104fe565b5b82820190509291505056fea26469706673582212205dba9dd7e68bb6952e8b2231e8a6bc929e7e0e16475c690323d0994c4666359c64736f6c634300080b0033",
  "immutableReferences": {},
  "source": "// SPDX-License-Identifier: MIT\r\npragma solidity >=0.4.22 <0.9.0;\r\n\r\ncontract Wallet {\r\n    address admin;\r\n    uint256 funds;\r\n    mapping(address => uint256) public balance;\r\n\r\n    constructor() {\r\n        admin = msg.sender;\r\n        funds = 0;\r\n    }\r\n\r\n    function add() public payable {\r\n        funds += (msg.value / (1 ether));\r\n        balance[msg.sender] += (msg.value / (1 ether));\r\n    }\r\n\r\n    function withdraw(uint256 _value) public returns (uint256) {\r\n        require(balance[msg.sender] >= _value, 'Insfficient Funds');\r\n        payable(address(msg.sender)).transfer(_value * (1 ether));\r\n        balance[msg.sender] -= _value;\r\n        return balance[msg.sender];\r\n    }\r\n\r\n    function getBalance() public view returns (uint256) {\r\n        return balance[msg.sender];\r\n    }\r\n}\r\n",
  "sourcePath": "E:\\Projects\\BlockChain\\MarketPlace\\contracts\\Wallet.sol",
  "compiler": {
    "name": "solc",
    "version": "0.8.11+commit.d7f03943.Emscripten.clang"
  },
  "schemaVersion": "3.4.4",
  "updatedAt": "2022-02-17T18:28:08.199Z",
  "networkType": "ethereum",
  "devdoc": {
    "kind": "dev",
    "methods": {},
    "version": 1
  },
  "userdoc": {
    "kind": "user",
    "methods": {},
    "version": 1
  }
}