{
  "contractName": "wallet",
  "abi": [
    {
      "inputs": [],
      "stateMutability": "nonpayable",
      "type": "constructor"
    },
    {
      "inputs": [
        {
          "internalType": "address",
          "name": "",
          "type": "address"
        }
      ],
      "name": "balanceOf",
      "outputs": [
        {
          "internalType": "uint256",
          "name": "",
          "type": "uint256"
        }
      ],
      "stateMutability": "view",
      "type": "function",
      "constant": true
    },
    {
      "inputs": [],
      "name": "sendEth",
      "outputs": [],
      "stateMutability": "payable",
      "type": "function",
      "payable": true
    },
    {
      "inputs": [],
      "name": "getBalance",
      "outputs": [
        {
          "internalType": "uint256",
          "name": "",
          "type": "uint256"
        }
      ],
      "stateMutability": "view",
      "type": "function",
      "constant": true
    },
    {
      "inputs": [
        {
          "internalType": "uint256",
          "name": "_value",
          "type": "uint256"
        }
      ],
      "name": "withdrawEth",
      "outputs": [],
      "stateMutability": "payable",
      "type": "function",
      "payable": true
    }
  ],
  "bytecode": "0x608060405234801561001057600080fd5b50336000806101000a81548173ffffffffffffffffffffffffffffffffffffffff021916908373ffffffffffffffffffffffffffffffffffffffff160217905550600060018190555061049d806100686000396000f3fe60806040526004361061003f5760003560e01c806306e99fef1461004457806312065fe01461004e57806370a0823114610079578063c311d049146100b6575b600080fd5b61004c6100d2565b005b34801561005a57600080fd5b50610063610157565b6040516100709190610207565b60405180910390f35b34801561008557600080fd5b506100a0600480360381019061009b9190610285565b61015f565b6040516100ad9190610207565b60405180910390f35b6100d060048036038101906100cb91906102de565b610177565b005b670de0b6b3a7640000346100e6919061033a565b600160008282546100f79190610394565b92505081905550670de0b6b3a764000034610112919061033a565b600260003373ffffffffffffffffffffffffffffffffffffffff1673ffffffffffffffffffffffffffffffffffffffff16815260200190815260200160002081905550565b600047905090565b60026020528060005260406000206000915090505481565b3373ffffffffffffffffffffffffffffffffffffffff166108fc829081150290604051600060405180830381858888f193505050506101eb576040517f08c379a00000000000000000000000000000000000000000000000000000000081526004016101e290610447565b60405180910390fd5b50565b6000819050919050565b610201816101ee565b82525050565b600060208201905061021c60008301846101f8565b92915050565b600080fd5b600073ffffffffffffffffffffffffffffffffffffffff82169050919050565b600061025282610227565b9050919050565b61026281610247565b811461026d57600080fd5b50565b60008135905061027f81610259565b92915050565b60006020828403121561029b5761029a610222565b5b60006102a984828501610270565b91505092915050565b6102bb816101ee565b81146102c657600080fd5b50565b6000813590506102d8816102b2565b92915050565b6000602082840312156102f4576102f3610222565b5b6000610302848285016102c9565b91505092915050565b7f4e487b7100000000000000000000000000000000000000000000000000000000600052601160045260246000fd5b6000610345826101ee565b9150610350836101ee565b9250817fffffffffffffffffffffffffffffffffffffffffffffffffffffffffffffffff04831182151516156103895761038861030b565b5b828202905092915050565b600061039f826101ee565b91506103aa836101ee565b9250827fffffffffffffffffffffffffffffffffffffffffffffffffffffffffffffffff038211156103df576103de61030b565b5b828201905092915050565b600082825260208201905092915050565b7f4661696c656420746f2073656e64204574686572000000000000000000000000600082015250565b60006104316014836103ea565b915061043c826103fb565b602082019050919050565b6000602082019050818103600083015261046081610424565b905091905056fea26469706673582212204093662ac6839a9cee508c899353e9f84678313d57b513988020d1326542750d64736f6c634300080b0033",
  "immutableReferences": {},
  "source": "pragma solidity >=0.4.22 <0.9.0;\r\n\r\ncontract wallet{\r\n//owner \r\n//map address - uint\r\n//send eth\r\n//withdraw eth\r\n//balance (wallet)\r\n//\r\n    address admin ;\r\n    uint funds;\r\n    mapping(address => uint256) public balanceOf;\r\n    constructor(){\r\n        admin=msg.sender;\r\n        funds=0;\r\n    }\r\n   function sendEth() public payable {\r\n        funds += (msg.value * (1 ether));\r\n        balanceOf[msg.sender]=msg.value * (1 ether);\r\n    }\r\n   function getBalance() public view returns (uint){\r\n       return address(this).balance;\r\n   }\r\n   \r\n   function withdrawEth(uint _value) public payable{\r\n       require(payable(msg.sender).send(_value), 'Failed to send Ether');\r\n   }\r\n}",
  "sourcePath": "C:\\Users\\eesha\\Desktop\\nft\\nftnft\\contracts\\Wallet.sol",
  "compiler": {
    "name": "solc",
    "version": "0.8.11+commit.d7f03943.Emscripten.clang"
  },
  "schemaVersion": "3.4.4",
  "updatedAt": "2022-02-10T11:21:04.165Z",
  "networkType": "ethereum",
  "devdoc": {
    "kind": "dev",
    "methods": {},
    "version": 1
  },
  "userdoc": {
    "kind": "user",
    "methods": {},
    "version": 1
  }
}