{
  "contractName": "wallet",
  "abi": [
    {
      "inputs": [],
      "stateMutability": "nonpayable",
      "type": "constructor"
    },
    {
      "inputs": [
        {
          "internalType": "address",
          "name": "",
          "type": "address"
        }
      ],
      "name": "balanceOf",
      "outputs": [
        {
          "internalType": "uint256",
          "name": "",
          "type": "uint256"
        }
      ],
      "stateMutability": "view",
      "type": "function",
      "constant": true
    },
    {
      "inputs": [],
      "name": "contractAddress",
      "outputs": [
        {
          "internalType": "address",
          "name": "",
          "type": "address"
        }
      ],
      "stateMutability": "view",
      "type": "function",
      "constant": true
    },
    {
      "inputs": [],
      "name": "sendEth",
      "outputs": [],
      "stateMutability": "payable",
      "type": "function",
      "payable": true
    },
    {
      "inputs": [],
      "name": "getBalance",
      "outputs": [
        {
          "internalType": "uint256",
          "name": "",
          "type": "uint256"
        }
      ],
      "stateMutability": "view",
      "type": "function",
      "constant": true
    },
    {
      "inputs": [
        {
          "internalType": "uint256",
          "name": "_value",
          "type": "uint256"
        }
      ],
      "name": "withdrawEth",
      "outputs": [
        {
          "internalType": "string",
          "name": "",
          "type": "string"
        }
      ],
      "stateMutability": "payable",
      "type": "function",
      "payable": true
    },
    {
      "inputs": [],
      "name": "getAddress",
      "outputs": [
        {
          "internalType": "address",
          "name": "",
          "type": "address"
        }
      ],
      "stateMutability": "view",
      "type": "function",
      "constant": true
    }
  ],
  "bytecode": "0x608060405234801561001057600080fd5b50336000806101000a81548173ffffffffffffffffffffffffffffffffffffffff021916908373ffffffffffffffffffffffffffffffffffffffff160217905550600060018190555030600260006101000a81548173ffffffffffffffffffffffffffffffffffffffff021916908373ffffffffffffffffffffffffffffffffffffffff160217905550610795806100a96000396000f3fe6080604052600436106100555760003560e01c806306e99fef1461005a57806312065fe01461006457806338cc48311461008f57806370a08231146100ba578063c311d049146100f7578063f6b4dfb414610127575b600080fd5b610062610152565b005b34801561007057600080fd5b506100796101d7565b60405161008691906103cb565b60405180910390f35b34801561009b57600080fd5b506100a46101f2565b6040516100b19190610427565b60405180910390f35b3480156100c657600080fd5b506100e160048036038101906100dc9190610473565b61021c565b6040516100ee91906103cb565b60405180910390f35b610111600480360381019061010c91906104cc565b610234565b60405161011e9190610592565b60405180910390f35b34801561013357600080fd5b5061013c61038c565b6040516101499190610427565b60405180910390f35b670de0b6b3a76400003461016691906105e3565b60016000828254610177919061063d565b92505081905550670de0b6b3a76400003461019291906106c2565b600360003373ffffffffffffffffffffffffffffffffffffffff1673ffffffffffffffffffffffffffffffffffffffff16815260200190815260200160002081905550565b6000670de0b6b3a7640000476101ed91906106c2565b905090565b6000600260009054906101000a900473ffffffffffffffffffffffffffffffffffffffff16905090565b60036020528060005260406000206000915090505481565b606060008054906101000a900473ffffffffffffffffffffffffffffffffffffffff1673ffffffffffffffffffffffffffffffffffffffff163373ffffffffffffffffffffffffffffffffffffffff16141561034e573373ffffffffffffffffffffffffffffffffffffffff166108fc670de0b6b3a7640000846102b891906105e3565b9081150290604051600060405180830381858888f19350505050610311576040517f08c379a00000000000000000000000000000000000000000000000000000000081526004016103089061073f565b60405180910390fd5b6040518060400160405280600a81526020017f5375636365737366756c000000000000000000000000000000000000000000008152509050610387565b6040518060400160405280600981526020017f4e6f74204f776e6572000000000000000000000000000000000000000000000081525090505b919050565b600260009054906101000a900473ffffffffffffffffffffffffffffffffffffffff1681565b6000819050919050565b6103c5816103b2565b82525050565b60006020820190506103e060008301846103bc565b92915050565b600073ffffffffffffffffffffffffffffffffffffffff82169050919050565b6000610411826103e6565b9050919050565b61042181610406565b82525050565b600060208201905061043c6000830184610418565b92915050565b600080fd5b61045081610406565b811461045b57600080fd5b50565b60008135905061046d81610447565b92915050565b60006020828403121561048957610488610442565b5b60006104978482850161045e565b91505092915050565b6104a9816103b2565b81146104b457600080fd5b50565b6000813590506104c6816104a0565b92915050565b6000602082840312156104e2576104e1610442565b5b60006104f0848285016104b7565b91505092915050565b600081519050919050565b600082825260208201905092915050565b60005b83811015610533578082015181840152602081019050610518565b83811115610542576000848401525b50505050565b6000601f19601f8301169050919050565b6000610564826104f9565b61056e8185610504565b935061057e818560208601610515565b61058781610548565b840191505092915050565b600060208201905081810360008301526105ac8184610559565b905092915050565b7f4e487b7100000000000000000000000000000000000000000000000000000000600052601160045260246000fd5b60006105ee826103b2565b91506105f9836103b2565b9250817fffffffffffffffffffffffffffffffffffffffffffffffffffffffffffffffff0483118215151615610632576106316105b4565b5b828202905092915050565b6000610648826103b2565b9150610653836103b2565b9250827fffffffffffffffffffffffffffffffffffffffffffffffffffffffffffffffff03821115610688576106876105b4565b5b828201905092915050565b7f4e487b7100000000000000000000000000000000000000000000000000000000600052601260045260246000fd5b60006106cd826103b2565b91506106d8836103b2565b9250826106e8576106e7610693565b5b828204905092915050565b7f4661696c656420746f2073656e64204574686572000000000000000000000000600082015250565b6000610729601483610504565b9150610734826106f3565b602082019050919050565b600060208201905081810360008301526107588161071c565b905091905056fea2646970667358221220dab1dab0c05590bed6fbd215e4f04c9ca9eb41c13850b533841322152ccddc4964736f6c634300080b0033",
  "immutableReferences": {},
  "source": "// SPDX-License-Identifier: MIT\r\npragma solidity >=0.4.22 <0.9.0;\r\ncontract wallet{\r\n//owner \r\n//map address - uint\r\n//send eth\r\n//withdraw eth\r\n//balance (wallet)\r\n//\r\n    address admin ;\r\n    uint funds;\r\n    address public contractAddress;\r\n    mapping(address => uint256) public balanceOf;\r\n    constructor() {\r\n        admin=msg.sender;\r\n        funds=0;\r\n        contractAddress=address(this);\r\n    }\r\n     \r\n   function sendEth() public payable {\r\n        funds += (msg.value * (1 ether));\r\n        balanceOf[msg.sender]=(msg.value / (1 ether));\r\n    }\r\n   function getBalance() public view returns (uint){\r\n       return address(this).balance/(1 ether);\r\n   }\r\n   \r\n   function withdrawEth(uint _value) public payable returns(string memory) {\r\n       if(msg.sender==admin){\r\n       require(payable(msg.sender).send(_value*1 ether), 'Failed to send Ether');\r\n       return(\"Successful\");\r\n       }\r\n\r\n       return(\"Not Owner\");\r\n   }\r\n   function getAddress() public view returns(address){\r\n       return contractAddress;\r\n   }\r\n}",
  "sourcePath": "C:\\Users\\eesha\\Desktop\\nft\\nftnft\\contracts\\wallet.sol",
  "compiler": {
    "name": "solc",
    "version": "0.8.11+commit.d7f03943.Emscripten.clang"
  },
  "schemaVersion": "3.4.4",
  "updatedAt": "2022-02-13T17:37:41.018Z",
  "networkType": "ethereum",
  "devdoc": {
    "kind": "dev",
    "methods": {},
    "version": 1
  },
  "userdoc": {
    "kind": "user",
    "methods": {},
    "version": 1
  }
}